{
  "_format": "hh-sol-artifact-1",
  "contractName": "HSR",
  "sourceName": "contracts/HSR.sol",
  "abi": [
    {
      "inputs": [],
      "stateMutability": "nonpayable",
      "type": "constructor"
    },
    {
      "anonymous": false,
      "inputs": [
        {
          "indexed": false,
          "internalType": "string",
          "name": "artistName",
          "type": "string"
        },
        {
          "indexed": false,
          "internalType": "string",
          "name": "listenerName",
          "type": "string"
        },
        {
          "indexed": false,
          "internalType": "uint256",
          "name": "amount",
          "type": "uint256"
        }
      ],
      "name": "artistDonated",
      "type": "event"
    },
    {
      "anonymous": false,
      "inputs": [
        {
          "indexed": false,
          "internalType": "uint256",
          "name": "songID",
          "type": "uint256"
        },
        {
          "indexed": false,
          "internalType": "string",
          "name": "songName",
          "type": "string"
        },
        {
          "indexed": false,
          "internalType": "string",
          "name": "artistName",
          "type": "string"
        },
        {
          "indexed": false,
          "internalType": "uint256",
          "name": "price",
          "type": "uint256"
        }
      ],
      "name": "songAdded",
      "type": "event"
    },
    {
      "anonymous": false,
      "inputs": [
        {
          "indexed": false,
          "internalType": "uint256",
          "name": "songID",
          "type": "uint256"
        },
        {
          "indexed": false,
          "internalType": "string",
          "name": "songName",
          "type": "string"
        },
        {
          "indexed": false,
          "internalType": "string",
          "name": "listenerName",
          "type": "string"
        },
        {
          "indexed": false,
          "internalType": "uint256",
          "name": "price",
          "type": "uint256"
        }
      ],
      "name": "songPurchased",
      "type": "event"
    },
    {
      "inputs": [
        {
          "internalType": "string",
          "name": "_name",
          "type": "string"
        }
      ],
      "name": "addNewArtist",
      "outputs": [],
      "stateMutability": "nonpayable",
      "type": "function"
    },
    {
      "inputs": [
        {
          "internalType": "string",
          "name": "_name",
          "type": "string"
        }
      ],
      "name": "addNewListener",
      "outputs": [],
      "stateMutability": "nonpayable",
      "type": "function"
    },
    {
      "inputs": [
        {
          "internalType": "string",
          "name": "_name",
          "type": "string"
        },
        {
          "internalType": "string",
          "name": "_genre",
          "type": "string"
        },
        {
          "internalType": "string",
          "name": "_hash",
          "type": "string"
        },
        {
          "internalType": "uint256",
          "name": "_price",
          "type": "uint256"
        }
      ],
      "name": "addSong",
      "outputs": [],
      "stateMutability": "nonpayable",
      "type": "function"
    },
    {
      "inputs": [
        {
          "internalType": "uint256",
          "name": "_songID",
          "type": "uint256"
        }
      ],
      "name": "buySong",
      "outputs": [],
      "stateMutability": "payable",
      "type": "function"
    },
    {
      "inputs": [],
      "name": "checkUser",
      "outputs": [
        {
          "internalType": "enum HSR.UserType",
          "name": "",
          "type": "uint8"
        }
      ],
      "stateMutability": "view",
      "type": "function"
    },
    {
      "inputs": [
        {
          "internalType": "string",
          "name": "artistName",
          "type": "string"
        }
      ],
      "name": "donateArtist",
      "outputs": [],
      "stateMutability": "payable",
      "type": "function"
    },
    {
      "inputs": [],
      "name": "getArtistDetails",
      "outputs": [
        {
          "internalType": "string",
          "name": "",
          "type": "string"
        },
        {
          "internalType": "uint256",
          "name": "",
          "type": "uint256"
        },
        {
          "internalType": "uint256[]",
          "name": "",
          "type": "uint256[]"
        }
      ],
      "stateMutability": "view",
      "type": "function"
    },
    {
      "inputs": [],
      "name": "getListenerDetails",
      "outputs": [
        {
          "internalType": "string",
          "name": "",
          "type": "string"
        },
        {
          "internalType": "uint256",
          "name": "",
          "type": "uint256"
        },
        {
          "internalType": "uint256[]",
          "name": "",
          "type": "uint256[]"
        }
      ],
      "stateMutability": "view",
      "type": "function"
    },
    {
      "inputs": [],
      "name": "getNumSongs",
      "outputs": [
        {
          "internalType": "uint256",
          "name": "",
          "type": "uint256"
        }
      ],
      "stateMutability": "view",
      "type": "function"
    },
    {
      "inputs": [
        {
          "internalType": "uint256",
          "name": "_songID",
          "type": "uint256"
        }
      ],
      "name": "getSongDetails",
      "outputs": [
        {
          "internalType": "string",
          "name": "",
          "type": "string"
        },
        {
          "internalType": "string",
          "name": "",
          "type": "string"
        },
        {
          "internalType": "string",
          "name": "",
          "type": "string"
        },
        {
          "internalType": "string",
          "name": "",
          "type": "string"
        },
        {
          "internalType": "uint256",
          "name": "",
          "type": "uint256"
        },
        {
          "internalType": "uint256",
          "name": "",
          "type": "uint256"
        }
      ],
      "stateMutability": "view",
      "type": "function"
    }
  ],
  "bytecode": "0x6080604052348015600f57600080fd5b5060006002819055506000600181905550600080819055506126f3806100366000396000f3fe6080604052600436106100915760003560e01c806377822fc21161005957806377822fc21461015c5780637f7a45101461019e578063c1562547146101cb578063dc4b0291146101f6578063f29b41651461021257610091565b80630c58d5b11461009657806342490c4b146100c15780634effb50e146100ea578063606a01751461011757806362efa5f014610133575b600080fd5b3480156100a257600080fd5b506100ab61023b565b6040516100b89190611941565b60405180910390f35b3480156100cd57600080fd5b506100e860048036038101906100e39190611ab6565b610245565b005b3480156100f657600080fd5b506100ff6103c4565b60405161010e93929190611c3c565b60405180910390f35b610131600480360381019061012c9190611cad565b61057a565b005b34801561013f57600080fd5b5061015a60048036038101906101559190611ab6565b610c21565b005b34801561016857600080fd5b50610183600480360381019061017e9190611cad565b610d06565b60405161019596959493929190611cda565b60405180910390f35b3480156101aa57600080fd5b506101b3610fd7565b6040516101c293929190611c3c565b60405180910390f35b3480156101d757600080fd5b506101e061118d565b6040516101ed9190611dce565b60405180910390f35b610210600480360381019061020b9190611ab6565b6111e1565b005b34801561021e57600080fd5b5061023960048036038101906102349190611de9565b6113f0565b005b6000600254905090565b60018060008282546102579190611ed3565b9250508190555061026661184a565b8181600001819052506001548160200181815250503360098360405161028c9190611f43565b908152602001604051809103902060006101000a81548173ffffffffffffffffffffffffffffffffffffffff021916908373ffffffffffffffffffffffffffffffffffffffff16021790555080600460003373ffffffffffffffffffffffffffffffffffffffff1673ffffffffffffffffffffffffffffffffffffffff168152602001908152602001600020600082015181600001908161032d9190612166565b5060208201518160010155604082015181600201908051906020019061035492919061186b565b509050506001600360003373ffffffffffffffffffffffffffffffffffffffff1673ffffffffffffffffffffffffffffffffffffffff16815260200190815260200160002060006101000a81548160ff021916908360028111156103bb576103ba611d57565b5b02179055505050565b606060006060600560003373ffffffffffffffffffffffffffffffffffffffff1673ffffffffffffffffffffffffffffffffffffffff168152602001908152602001600020600001600560003373ffffffffffffffffffffffffffffffffffffffff1673ffffffffffffffffffffffffffffffffffffffff16815260200190815260200160002060010154600560003373ffffffffffffffffffffffffffffffffffffffff1673ffffffffffffffffffffffffffffffffffffffff16815260200190815260200160002060020182805461049d90611f89565b80601f01602080910402602001604051908101604052809291908181526020018280546104c990611f89565b80156105165780601f106104eb57610100808354040283529160200191610516565b820191906000526020600020905b8154815290600101906020018083116104f957829003601f168201915b505050505092508080548060200260200160405190810160405280929190818152602001828054801561056857602002820191906000526020600020905b815481526020019060010190808311610554575b50505050509050925092509250909192565b60028081111561058d5761058c611d57565b5b600360003373ffffffffffffffffffffffffffffffffffffffff1673ffffffffffffffffffffffffffffffffffffffff16815260200190815260200160002060009054906101000a900460ff1660028111156105ec576105eb611d57565b5b1461062c576040517f08c379a000000000000000000000000000000000000000000000000000000000815260040161062390612284565b60405180910390fd5b600560003373ffffffffffffffffffffffffffffffffffffffff1673ffffffffffffffffffffffffffffffffffffffff168152602001908152602001600020600301600082815260200190815260200160002060009054906101000a900460ff16156106cd576040517f08c379a00000000000000000000000000000000000000000000000000000000081526004016106c4906122f0565b60405180910390fd5b6000600660008381526020019081526020016000206040518060e00160405290816000820180546106fd90611f89565b80601f016020809104026020016040519081016040528092919081815260200182805461072990611f89565b80156107765780601f1061074b57610100808354040283529160200191610776565b820191906000526020600020905b81548152906001019060200180831161075957829003601f168201915b5050505050815260200160018201805461078f90611f89565b80601f01602080910402602001604051908101604052809291908181526020018280546107bb90611f89565b80156108085780601f106107dd57610100808354040283529160200191610808565b820191906000526020600020905b8154815290600101906020018083116107eb57829003601f168201915b5050505050815260200160028201805461082190611f89565b80601f016020809104026020016040519081016040528092919081815260200182805461084d90611f89565b801561089a5780601f1061086f5761010080835404028352916020019161089a565b820191906000526020600020905b81548152906001019060200180831161087d57829003601f168201915b505050505081526020016003820180546108b390611f89565b80601f01602080910402602001604051908101604052809291908181526020018280546108df90611f89565b801561092c5780601f106109015761010080835404028352916020019161092c565b820191906000526020600020905b81548152906001019060200180831161090f57829003601f168201915b5050505050815260200160048201548152602001600582015481526020016006820160009054906101000a900473ffffffffffffffffffffffffffffffffffffffff1673ffffffffffffffffffffffffffffffffffffffff1673ffffffffffffffffffffffffffffffffffffffff1681525050905060018160a001516109b29190612310565b34146109f3576040517f08c379a00000000000000000000000000000000000000000000000000000000081526004016109ea906123c4565b60405180910390fd5b343373ffffffffffffffffffffffffffffffffffffffff163111610a4c576040517f08c379a0000000000000000000000000000000000000000000000000000000008152600401610a4390612430565b60405180910390fd5b8060c0015173ffffffffffffffffffffffffffffffffffffffff166108fc349081150290604051600060405180830381858888f19350505050158015610a96573d6000803e3d6000fd5b506001600760008481526020019081526020016000206000828254610abb9190611ed3565b92505081905550600560003373ffffffffffffffffffffffffffffffffffffffff1673ffffffffffffffffffffffffffffffffffffffff1681526020019081526020016000206002018290806001815401808255809150506001900390600052602060002001600090919091909150556001600560003373ffffffffffffffffffffffffffffffffffffffff1673ffffffffffffffffffffffffffffffffffffffff168152602001908152602001600020600301600084815260200190815260200160002060006101000a81548160ff0219169083151502179055507f4d5d3c0b738fd8f4b26fa11966a64c4b072cb5837aadaf02808df71f883a5d5181608001518260000151600560003373ffffffffffffffffffffffffffffffffffffffff1673ffffffffffffffffffffffffffffffffffffffff16815260200190815260200160002060000134604051610c1594939291906124d4565b60405180910390a15050565b6001600080828254610c339190611ed3565b925050819055506000600560003373ffffffffffffffffffffffffffffffffffffffff1673ffffffffffffffffffffffffffffffffffffffff168152602001908152602001600020905081816000019081610c8e9190612166565b5060005481600101819055506002600360003373ffffffffffffffffffffffffffffffffffffffff1673ffffffffffffffffffffffffffffffffffffffff16815260200190815260200160002060006101000a81548160ff02191690836002811115610cfd57610cfc611d57565b5b02179055505050565b6060806060806000806006600088815260200190815260200160002060000160066000898152602001908152602001600020600101600660008a8152602001908152602001600020600201600660008b8152602001908152602001600020600301600660008c815260200190815260200160002060050154600760008d815260200190815260200160002054858054610d9e90611f89565b80601f0160208091040260200160405190810160405280929190818152602001828054610dca90611f89565b8015610e175780601f10610dec57610100808354040283529160200191610e17565b820191906000526020600020905b815481529060010190602001808311610dfa57829003601f168201915b50505050509550848054610e2a90611f89565b80601f0160208091040260200160405190810160405280929190818152602001828054610e5690611f89565b8015610ea35780601f10610e7857610100808354040283529160200191610ea3565b820191906000526020600020905b815481529060010190602001808311610e8657829003601f168201915b50505050509450838054610eb690611f89565b80601f0160208091040260200160405190810160405280929190818152602001828054610ee290611f89565b8015610f2f5780601f10610f0457610100808354040283529160200191610f2f565b820191906000526020600020905b815481529060010190602001808311610f1257829003601f168201915b50505050509350828054610f4290611f89565b80601f0160208091040260200160405190810160405280929190818152602001828054610f6e90611f89565b8015610fbb5780601f10610f9057610100808354040283529160200191610fbb565b820191906000526020600020905b815481529060010190602001808311610f9e57829003601f168201915b5050505050925095509550955095509550955091939550919395565b606060006060600460003373ffffffffffffffffffffffffffffffffffffffff1673ffffffffffffffffffffffffffffffffffffffff168152602001908152602001600020600001600460003373ffffffffffffffffffffffffffffffffffffffff1673ffffffffffffffffffffffffffffffffffffffff16815260200190815260200160002060010154600460003373ffffffffffffffffffffffffffffffffffffffff1673ffffffffffffffffffffffffffffffffffffffff1681526020019081526020016000206002018280546110b090611f89565b80601f01602080910402602001604051908101604052809291908181526020018280546110dc90611f89565b80156111295780601f106110fe57610100808354040283529160200191611129565b820191906000526020600020905b81548152906001019060200180831161110c57829003601f168201915b505050505092508080548060200260200160405190810160405280929190818152602001828054801561117b57602002820191906000526020600020905b815481526020019060010190808311611167575b50505050509050925092509250909192565b6000600360003373ffffffffffffffffffffffffffffffffffffffff1673ffffffffffffffffffffffffffffffffffffffff16815260200190815260200160002060009054906101000a900460ff16905090565b6002808111156111f4576111f3611d57565b5b600360003373ffffffffffffffffffffffffffffffffffffffff1673ffffffffffffffffffffffffffffffffffffffff16815260200190815260200160002060009054906101000a900460ff16600281111561125357611252611d57565b5b14611293576040517f08c379a000000000000000000000000000000000000000000000000000000000815260040161128a90612284565b60405180910390fd5b343373ffffffffffffffffffffffffffffffffffffffff1631116112ec576040517f08c379a00000000000000000000000000000000000000000000000000000000081526004016112e390612430565b60405180910390fd5b6009816040516112fc9190611f43565b908152602001604051809103902060009054906101000a900473ffffffffffffffffffffffffffffffffffffffff1673ffffffffffffffffffffffffffffffffffffffff166108fc349081150290604051600060405180830381858888f19350505050158015611370573d6000803e3d6000fd5b507f19fc7073cff31b76fe0bf3c801e7fe11652310c62d0c225a9995a5d30940c64881600560003373ffffffffffffffffffffffffffffffffffffffff1673ffffffffffffffffffffffffffffffffffffffff168152602001908152602001600020600001346040516113e593929190612527565b60405180910390a150565b6001600281111561140457611403611d57565b5b600360003373ffffffffffffffffffffffffffffffffffffffff1673ffffffffffffffffffffffffffffffffffffffff16815260200190815260200160002060009054906101000a900460ff16600281111561146357611462611d57565b5b146114a3576040517f08c379a000000000000000000000000000000000000000000000000000000000815260040161149a906125b8565b60405180910390fd5b6008826040516114b39190611f43565b908152602001604051809103902060009054906101000a900460ff161561150f576040517f08c379a00000000000000000000000000000000000000000000000000000000081526004016115069061264a565b60405180910390fd5b6001600260008282546115229190611ed3565b925050819055506115316118b8565b600254816080018181525050848160000181905250600460003373ffffffffffffffffffffffffffffffffffffffff1673ffffffffffffffffffffffffffffffffffffffff168152602001908152602001600020600001805461159390611f89565b80601f01602080910402602001604051908101604052809291908181526020018280546115bf90611f89565b801561160c5780601f106115e15761010080835404028352916020019161160c565b820191906000526020600020905b8154815290600101906020018083116115ef57829003601f168201915b50505050508160200181905250838160400181905250828160600181905250818160a0018181525050338160c0019073ffffffffffffffffffffffffffffffffffffffff16908173ffffffffffffffffffffffffffffffffffffffff16815250506000600760006002548152602001908152602001600020819055508060066000600254815260200190815260200160002060008201518160000190816116b39190612166565b5060208201518160010190816116c99190612166565b5060408201518160020190816116df9190612166565b5060608201518160030190816116f59190612166565b506080820151816004015560a0820151816005015560c08201518160060160006101000a81548173ffffffffffffffffffffffffffffffffffffffff021916908373ffffffffffffffffffffffffffffffffffffffff160217905550905050600460003373ffffffffffffffffffffffffffffffffffffffff1673ffffffffffffffffffffffffffffffffffffffff168152602001908152602001600020600201600254908060018154018082558091505060019003906000526020600020016000909190919091505560016008846040516117d19190611f43565b908152602001604051809103902060006101000a81548160ff0219169083151502179055507f8c6d5283b06a4f84805865678e0a51043ab4788bdd609db7c5cbe4c6fce5c97f8160800151826000015183602001518460a0015160405161183b949392919061266a565b60405180910390a15050505050565b60405180606001604052806060815260200160008152602001606081525090565b8280548282559060005260206000209081019282156118a7579160200282015b828111156118a657825182559160200191906001019061188b565b5b5090506118b4919061190b565b5090565b6040518060e00160405280606081526020016060815260200160608152602001606081526020016000815260200160008152602001600073ffffffffffffffffffffffffffffffffffffffff1681525090565b5b8082111561192457600081600090555060010161190c565b5090565b6000819050919050565b61193b81611928565b82525050565b60006020820190506119566000830184611932565b92915050565b6000604051905090565b600080fd5b600080fd5b600080fd5b600080fd5b6000601f19601f8301169050919050565b7f4e487b7100000000000000000000000000000000000000000000000000000000600052604160045260246000fd5b6119c38261197a565b810181811067ffffffffffffffff821117156119e2576119e161198b565b5b80604052505050565b60006119f561195c565b9050611a0182826119ba565b919050565b600067ffffffffffffffff821115611a2157611a2061198b565b5b611a2a8261197a565b9050602081019050919050565b82818337600083830152505050565b6000611a59611a5484611a06565b6119eb565b905082815260208101848484011115611a7557611a74611975565b5b611a80848285611a37565b509392505050565b600082601f830112611a9d57611a9c611970565b5b8135611aad848260208601611a46565b91505092915050565b600060208284031215611acc57611acb611966565b5b600082013567ffffffffffffffff811115611aea57611ae961196b565b5b611af684828501611a88565b91505092915050565b600081519050919050565b600082825260208201905092915050565b60005b83811015611b39578082015181840152602081019050611b1e565b60008484015250505050565b6000611b5082611aff565b611b5a8185611b0a565b9350611b6a818560208601611b1b565b611b738161197a565b840191505092915050565b600081519050919050565b600082825260208201905092915050565b6000819050602082019050919050565b611bb381611928565b82525050565b6000611bc58383611baa565b60208301905092915050565b6000602082019050919050565b6000611be982611b7e565b611bf38185611b89565b9350611bfe83611b9a565b8060005b83811015611c2f578151611c168882611bb9565b9750611c2183611bd1565b925050600181019050611c02565b5085935050505092915050565b60006060820190508181036000830152611c568186611b45565b9050611c656020830185611932565b8181036040830152611c778184611bde565b9050949350505050565b611c8a81611928565b8114611c9557600080fd5b50565b600081359050611ca781611c81565b92915050565b600060208284031215611cc357611cc2611966565b5b6000611cd184828501611c98565b91505092915050565b600060c0820190508181036000830152611cf48189611b45565b90508181036020830152611d088188611b45565b90508181036040830152611d1c8187611b45565b90508181036060830152611d308186611b45565b9050611d3f6080830185611932565b611d4c60a0830184611932565b979650505050505050565b7f4e487b7100000000000000000000000000000000000000000000000000000000600052602160045260246000fd5b60038110611d9757611d96611d57565b5b50565b6000819050611da882611d86565b919050565b6000611db882611d9a565b9050919050565b611dc881611dad565b82525050565b6000602082019050611de36000830184611dbf565b92915050565b60008060008060808587031215611e0357611e02611966565b5b600085013567ffffffffffffffff811115611e2157611e2061196b565b5b611e2d87828801611a88565b945050602085013567ffffffffffffffff811115611e4e57611e4d61196b565b5b611e5a87828801611a88565b935050604085013567ffffffffffffffff811115611e7b57611e7a61196b565b5b611e8787828801611a88565b9250506060611e9887828801611c98565b91505092959194509250565b7f4e487b7100000000000000000000000000000000000000000000000000000000600052601160045260246000fd5b6000611ede82611928565b9150611ee983611928565b9250828201905080821115611f0157611f00611ea4565b5b92915050565b600081905092915050565b6000611f1d82611aff565b611f278185611f07565b9350611f37818560208601611b1b565b80840191505092915050565b6000611f4f8284611f12565b915081905092915050565b7f4e487b7100000000000000000000000000000000000000000000000000000000600052602260045260246000fd5b60006002820490506001821680611fa157607f821691505b602082108103611fb457611fb3611f5a565b5b50919050565b60008190508160005260206000209050919050565b60006020601f8301049050919050565b600082821b905092915050565b60006008830261201c7fffffffffffffffffffffffffffffffffffffffffffffffffffffffffffffffff82611fdf565b6120268683611fdf565b95508019841693508086168417925050509392505050565b6000819050919050565b600061206361205e61205984611928565b61203e565b611928565b9050919050565b6000819050919050565b61207d83612048565b6120916120898261206a565b848454611fec565b825550505050565b600090565b6120a6612099565b6120b1818484612074565b505050565b5b818110156120d5576120ca60008261209e565b6001810190506120b7565b5050565b601f82111561211a576120eb81611fba565b6120f484611fcf565b81016020851015612103578190505b61211761210f85611fcf565b8301826120b6565b50505b505050565b600082821c905092915050565b600061213d6000198460080261211f565b1980831691505092915050565b6000612156838361212c565b9150826002028217905092915050565b61216f82611aff565b67ffffffffffffffff8111156121885761218761198b565b5b6121928254611f89565b61219d8282856120d9565b600060209050601f8311600181146121d057600084156121be578287015190505b6121c8858261214a565b865550612230565b601f1984166121de86611fba565b60005b82811015612206578489015182556001820191506020850194506020810190506121e1565b86831015612223578489015161221f601f89168261212c565b8355505b6001600288020188555050505b505050505050565b7f4e6f742061206c697374656e65722070726f66696c652e000000000000000000600082015250565b600061226e601783611b0a565b915061227982612238565b602082019050919050565b6000602082019050818103600083015261229d81612261565b9050919050565b7f536f6e6720616c7265616479207075726368617365642e000000000000000000600082015250565b60006122da601783611b0a565b91506122e5826122a4565b602082019050919050565b60006020820190508181036000830152612309816122cd565b9050919050565b600061231b82611928565b915061232683611928565b925082820261233481611928565b9150828204841483151761234b5761234a611ea4565b5b5092915050565b7f416d6f756e7420706179656420646f6573206e6f74206d61746368207072696360008201527f65206f662074686520736f6e672e000000000000000000000000000000000000602082015250565b60006123ae602e83611b0a565b91506123b982612352565b604082019050919050565b600060208201905081810360008301526123dd816123a1565b9050919050565b7f496e73756666696369656e742062616c616e636520746f2070726f636565642e600082015250565b600061241a602083611b0a565b9150612425826123e4565b602082019050919050565b600060208201905081810360008301526124498161240d565b9050919050565b6000815461245d81611f89565b6124678186611b0a565b945060018216600081146124825760018114612498576124cb565b60ff1983168652811515602002860193506124cb565b6124a185611fba565b60005b838110156124c3578154818901526001820191506020810190506124a4565b808801955050505b50505092915050565b60006080820190506124e96000830187611932565b81810360208301526124fb8186611b45565b9050818103604083015261250f8185612450565b905061251e6060830184611932565b95945050505050565b600060608201905081810360008301526125418186611b45565b905081810360208301526125558185612450565b90506125646040830184611932565b949350505050565b7f4e6f7420616e206172746973742e000000000000000000000000000000000000600082015250565b60006125a2600e83611b0a565b91506125ad8261256c565b602082019050919050565b600060208201905081810360008301526125d181612595565b9050919050565b7f4475706c6963617465206861736820686173206265656e20646574656374656460008201527f2e00000000000000000000000000000000000000000000000000000000000000602082015250565b6000612634602183611b0a565b915061263f826125d8565b604082019050919050565b6000602082019050818103600083015261266381612627565b9050919050565b600060808201905061267f6000830187611932565b81810360208301526126918186611b45565b905081810360408301526126a58185611b45565b90506126b46060830184611932565b9594505050505056fea26469706673582212208f45e55a788340a588d4d0790cbda9347fb3f7b10f01fa58f8498cb65b81116e64736f6c634300081c0033",
  "linkReferences": {},
  "deployedLinkReferences": {}
}