{
  "_format": "hh-sol-artifact-1",
  "contractName": "HSR",
  "sourceName": "contracts/HSR.sol",
  "abi": [
    {
      "inputs": [],
      "stateMutability": "nonpayable",
      "type": "constructor"
    },
    {
      "anonymous": false,
      "inputs": [
        {
          "indexed": false,
          "internalType": "string",
          "name": "artistName",
          "type": "string"
        },
        {
          "indexed": false,
          "internalType": "string",
          "name": "listenerName",
          "type": "string"
        },
        {
          "indexed": false,
          "internalType": "uint256",
          "name": "amount",
          "type": "uint256"
        }
      ],
      "name": "artistDonated",
      "type": "event"
    },
    {
      "anonymous": false,
      "inputs": [
        {
          "indexed": false,
          "internalType": "uint256",
          "name": "songID",
          "type": "uint256"
        },
        {
          "indexed": false,
          "internalType": "string",
          "name": "songName",
          "type": "string"
        },
        {
          "indexed": false,
          "internalType": "string",
          "name": "artistName",
          "type": "string"
        },
        {
          "indexed": false,
          "internalType": "uint256",
          "name": "price",
          "type": "uint256"
        }
      ],
      "name": "songAdded",
      "type": "event"
    },
    {
      "anonymous": false,
      "inputs": [
        {
          "indexed": false,
          "internalType": "uint256",
          "name": "songID",
          "type": "uint256"
        },
        {
          "indexed": false,
          "internalType": "string",
          "name": "songName",
          "type": "string"
        },
        {
          "indexed": false,
          "internalType": "string",
          "name": "listenerName",
          "type": "string"
        },
        {
          "indexed": false,
          "internalType": "uint256",
          "name": "price",
          "type": "uint256"
        }
      ],
      "name": "songPurchased",
      "type": "event"
    },
    {
      "inputs": [
        {
          "internalType": "string",
          "name": "_name",
          "type": "string"
        }
      ],
      "name": "addNewArtist",
      "outputs": [],
      "stateMutability": "nonpayable",
      "type": "function"
    },
    {
      "inputs": [
        {
          "internalType": "string",
          "name": "_name",
          "type": "string"
        }
      ],
      "name": "addNewListener",
      "outputs": [],
      "stateMutability": "nonpayable",
      "type": "function"
    },
    {
      "inputs": [
        {
          "internalType": "string",
          "name": "_name",
          "type": "string"
        },
        {
          "internalType": "string",
          "name": "_genre",
          "type": "string"
        },
        {
          "internalType": "bytes32",
          "name": "_hash",
          "type": "bytes32"
        },
        {
          "internalType": "uint256",
          "name": "_price",
          "type": "uint256"
        }
      ],
      "name": "addSong",
      "outputs": [],
      "stateMutability": "nonpayable",
      "type": "function"
    },
    {
      "inputs": [
        {
          "internalType": "uint256",
          "name": "_songID",
          "type": "uint256"
        }
      ],
      "name": "buySong",
      "outputs": [],
      "stateMutability": "payable",
      "type": "function"
    },
    {
      "inputs": [],
      "name": "checkUser",
      "outputs": [
        {
          "internalType": "enum HSR.UserType",
          "name": "",
          "type": "uint8"
        }
      ],
      "stateMutability": "view",
      "type": "function"
    },
    {
      "inputs": [
        {
          "internalType": "string",
          "name": "artistName",
          "type": "string"
        }
      ],
      "name": "donateArtist",
      "outputs": [],
      "stateMutability": "payable",
      "type": "function"
    },
    {
      "inputs": [],
      "name": "getArtistDetails",
      "outputs": [
        {
          "internalType": "string",
          "name": "",
          "type": "string"
        },
        {
          "internalType": "uint256",
          "name": "",
          "type": "uint256"
        },
        {
          "internalType": "uint256[]",
          "name": "",
          "type": "uint256[]"
        }
      ],
      "stateMutability": "view",
      "type": "function"
    },
    {
      "inputs": [],
      "name": "getListenerDetails",
      "outputs": [
        {
          "internalType": "string",
          "name": "",
          "type": "string"
        },
        {
          "internalType": "uint256",
          "name": "",
          "type": "uint256"
        },
        {
          "internalType": "uint256[]",
          "name": "",
          "type": "uint256[]"
        }
      ],
      "stateMutability": "view",
      "type": "function"
    },
    {
      "inputs": [],
      "name": "getNumSongs",
      "outputs": [
        {
          "internalType": "uint256",
          "name": "",
          "type": "uint256"
        }
      ],
      "stateMutability": "view",
      "type": "function"
    },
    {
      "inputs": [
        {
          "internalType": "uint256",
          "name": "_songID",
          "type": "uint256"
        }
      ],
      "name": "getSongDetails",
      "outputs": [
        {
          "internalType": "string",
          "name": "",
          "type": "string"
        },
        {
          "internalType": "string",
          "name": "",
          "type": "string"
        },
        {
          "internalType": "string",
          "name": "",
          "type": "string"
        },
        {
          "internalType": "string",
          "name": "",
          "type": "string"
        },
        {
          "internalType": "uint256",
          "name": "",
          "type": "uint256"
        },
        {
          "internalType": "uint256",
          "name": "",
          "type": "uint256"
        }
      ],
      "stateMutability": "view",
      "type": "function"
    },
    {
      "inputs": [
        {
          "internalType": "uint256",
          "name": "_songID",
          "type": "uint256"
        }
      ],
      "name": "removeSongFromSale",
      "outputs": [],
      "stateMutability": "nonpayable",
      "type": "function"
    },
    {
      "inputs": [
        {
          "internalType": "uint256",
          "name": "_songID",
          "type": "uint256"
        },
        {
          "internalType": "uint256",
          "name": "_newPrice",
          "type": "uint256"
        }
      ],
      "name": "updateSongPrice",
      "outputs": [],
      "stateMutability": "nonpayable",
      "type": "function"
    }
  ],
  "bytecode": "0x608060405234801561001057600080fd5b506000600281905550600060018190555060008081905550612b5e806100376000396000f3fe6080604052600436106100a75760003560e01c8063606a017511610064578063606a0175146101a857806362efa5f0146101c457806377822fc2146101ed5780637f7a45101461022f578063c15625471461025c578063dc4b029114610287576100a7565b80630c58d5b1146100ac57806323a3cbba146100d757806342490c4b146101005780634effb50e1461012957806355add5251461015657806358ea5f991461017f575b600080fd5b3480156100b857600080fd5b506100c16102a3565b6040516100ce9190611c18565b60405180910390f35b3480156100e357600080fd5b506100fe60048036038101906100f99190611c73565b6102ad565b005b34801561010c57600080fd5b5061012760048036038101906101229190611df9565b610466565b005b34801561013557600080fd5b5061013e6105e5565b60405161014d93929190611f7f565b60405180910390f35b34801561016257600080fd5b5061017d60048036038101906101789190611ffa565b61079b565b005b34801561018b57600080fd5b506101a660048036038101906101a19190612099565b610bd4565b005b6101c260048036038101906101bd9190612099565b610d4a565b005b3480156101d057600080fd5b506101eb60048036038101906101e69190611df9565b611369565b005b3480156101f957600080fd5b50610214600480360381019061020f9190612099565b61144e565b604051610226969594939291906120c6565b60405180910390f35b34801561023b57600080fd5b50610244611705565b60405161025393929190611f7f565b60405180910390f35b34801561026857600080fd5b506102716118bb565b60405161027e91906121ba565b60405180910390f35b6102a1600480360381019061029c9190611df9565b61190f565b005b6000600254905090565b600160028111156102c1576102c0612143565b5b600360003373ffffffffffffffffffffffffffffffffffffffff1673ffffffffffffffffffffffffffffffffffffffff16815260200190815260200160002060009054906101000a900460ff1660028111156103205761031f612143565b5b14610360576040517f08c379a000000000000000000000000000000000000000000000000000000000815260040161035790612221565b60405180910390fd5b3373ffffffffffffffffffffffffffffffffffffffff166006600084815260200190815260200160002060060160009054906101000a900473ffffffffffffffffffffffffffffffffffffffff1673ffffffffffffffffffffffffffffffffffffffff1614610404576040517f08c379a00000000000000000000000000000000000000000000000000000000081526004016103fb906122b3565b60405180910390fd5b60008111610447576040517f08c379a000000000000000000000000000000000000000000000000000000000815260040161043e9061231f565b60405180910390fd5b8060066000848152602001908152602001600020600501819055505050565b6001806000828254610478919061236e565b92505081905550610487611b1e565b818160000181905250600154816020018181525050336009836040516104ad91906123de565b908152602001604051809103902060006101000a81548173ffffffffffffffffffffffffffffffffffffffff021916908373ffffffffffffffffffffffffffffffffffffffff16021790555080600460003373ffffffffffffffffffffffffffffffffffffffff1673ffffffffffffffffffffffffffffffffffffffff168152602001908152602001600020600082015181600001908161054e9190612601565b50602082015181600101556040820151816002019080519060200190610575929190611b3f565b509050506001600360003373ffffffffffffffffffffffffffffffffffffffff1673ffffffffffffffffffffffffffffffffffffffff16815260200190815260200160002060006101000a81548160ff021916908360028111156105dc576105db612143565b5b02179055505050565b606060006060600560003373ffffffffffffffffffffffffffffffffffffffff1673ffffffffffffffffffffffffffffffffffffffff168152602001908152602001600020600001600560003373ffffffffffffffffffffffffffffffffffffffff1673ffffffffffffffffffffffffffffffffffffffff16815260200190815260200160002060010154600560003373ffffffffffffffffffffffffffffffffffffffff1673ffffffffffffffffffffffffffffffffffffffff1681526020019081526020016000206002018280546106be90612424565b80601f01602080910402602001604051908101604052809291908181526020018280546106ea90612424565b80156107375780601f1061070c57610100808354040283529160200191610737565b820191906000526020600020905b81548152906001019060200180831161071a57829003601f168201915b505050505092508080548060200260200160405190810160405280929190818152602001828054801561078957602002820191906000526020600020905b815481526020019060010190808311610775575b50505050509050925092509250909192565b600160028111156107af576107ae612143565b5b600360003373ffffffffffffffffffffffffffffffffffffffff1673ffffffffffffffffffffffffffffffffffffffff16815260200190815260200160002060009054906101000a900460ff16600281111561080e5761080d612143565b5b1461084e576040517f08c379a000000000000000000000000000000000000000000000000000000000815260040161084590612221565b60405180910390fd5b6008600083815260200190815260200160002060009054906101000a900460ff16156108af576040517f08c379a00000000000000000000000000000000000000000000000000000000081526004016108a690612745565b60405180910390fd5b6001600260008282546108c2919061236e565b925050819055506108d1611b8c565b600254816080018181525050848160000181905250600460003373ffffffffffffffffffffffffffffffffffffffff1673ffffffffffffffffffffffffffffffffffffffff168152602001908152602001600020600001805461093390612424565b80601f016020809104026020016040519081016040528092919081815260200182805461095f90612424565b80156109ac5780601f10610981576101008083540402835291602001916109ac565b820191906000526020600020905b81548152906001019060200180831161098f57829003601f168201915b5050505050816020018190525083816040018190525082816060018181525050818160a0018181525050338160c0019073ffffffffffffffffffffffffffffffffffffffff16908173ffffffffffffffffffffffffffffffffffffffff1681525050600060076000600254815260200190815260200160002081905550806006600060025481526020019081526020016000206000820151816000019081610a549190612601565b506020820151816001019081610a6a9190612601565b506040820151816002019081610a809190612601565b50606082015181600301556080820151816004015560a0820151816005015560c08201518160060160006101000a81548173ffffffffffffffffffffffffffffffffffffffff021916908373ffffffffffffffffffffffffffffffffffffffff160217905550905050600460003373ffffffffffffffffffffffffffffffffffffffff1673ffffffffffffffffffffffffffffffffffffffff168152602001908152602001600020600201600254908060018154018082558091505060019003906000526020600020016000909190919091505560016008600085815260200190815260200160002060006101000a81548160ff0219169083151502179055507f8c6d5283b06a4f84805865678e0a51043ab4788bdd609db7c5cbe4c6fce5c97f8160800151826000015183602001518460a00151604051610bc59493929190612765565b60405180910390a15050505050565b60016002811115610be857610be7612143565b5b600360003373ffffffffffffffffffffffffffffffffffffffff1673ffffffffffffffffffffffffffffffffffffffff16815260200190815260200160002060009054906101000a900460ff166002811115610c4757610c46612143565b5b14610c87576040517f08c379a0000000000000000000000000000000000000000000000000000000008152600401610c7e90612221565b60405180910390fd5b3373ffffffffffffffffffffffffffffffffffffffff166006600083815260200190815260200160002060060160009054906101000a900473ffffffffffffffffffffffffffffffffffffffff1673ffffffffffffffffffffffffffffffffffffffff1614610d2b576040517f08c379a0000000000000000000000000000000000000000000000000000000008152600401610d22906122b3565b60405180910390fd5b6000600660008381526020019081526020016000206005018190555050565b600280811115610d5d57610d5c612143565b5b600360003373ffffffffffffffffffffffffffffffffffffffff1673ffffffffffffffffffffffffffffffffffffffff16815260200190815260200160002060009054906101000a900460ff166002811115610dbc57610dbb612143565b5b14610dfc576040517f08c379a0000000000000000000000000000000000000000000000000000000008152600401610df390612804565b60405180910390fd5b600560003373ffffffffffffffffffffffffffffffffffffffff1673ffffffffffffffffffffffffffffffffffffffff168152602001908152602001600020600301600082815260200190815260200160002060009054906101000a900460ff1615610e9d576040517f08c379a0000000000000000000000000000000000000000000000000000000008152600401610e9490612870565b60405180910390fd5b6000600660008381526020019081526020016000206040518060e0016040529081600082018054610ecd90612424565b80601f0160208091040260200160405190810160405280929190818152602001828054610ef990612424565b8015610f465780601f10610f1b57610100808354040283529160200191610f46565b820191906000526020600020905b815481529060010190602001808311610f2957829003601f168201915b50505050508152602001600182018054610f5f90612424565b80601f0160208091040260200160405190810160405280929190818152602001828054610f8b90612424565b8015610fd85780601f10610fad57610100808354040283529160200191610fd8565b820191906000526020600020905b815481529060010190602001808311610fbb57829003601f168201915b50505050508152602001600282018054610ff190612424565b80601f016020809104026020016040519081016040528092919081815260200182805461101d90612424565b801561106a5780601f1061103f5761010080835404028352916020019161106a565b820191906000526020600020905b81548152906001019060200180831161104d57829003601f168201915b505050505081526020016003820154815260200160048201548152602001600582015481526020016006820160009054906101000a900473ffffffffffffffffffffffffffffffffffffffff1673ffffffffffffffffffffffffffffffffffffffff1673ffffffffffffffffffffffffffffffffffffffff1681525050905060018160a001516110fa9190612890565b341461113b576040517f08c379a000000000000000000000000000000000000000000000000000000000815260040161113290612944565b60405180910390fd5b343373ffffffffffffffffffffffffffffffffffffffff163111611194576040517f08c379a000000000000000000000000000000000000000000000000000000000815260040161118b906129b0565b60405180910390fd5b8060c0015173ffffffffffffffffffffffffffffffffffffffff166108fc349081150290604051600060405180830381858888f193505050501580156111de573d6000803e3d6000fd5b506001600760008481526020019081526020016000206000828254611203919061236e565b92505081905550600560003373ffffffffffffffffffffffffffffffffffffffff1673ffffffffffffffffffffffffffffffffffffffff1681526020019081526020016000206002018290806001815401808255809150506001900390600052602060002001600090919091909150556001600560003373ffffffffffffffffffffffffffffffffffffffff1673ffffffffffffffffffffffffffffffffffffffff168152602001908152602001600020600301600084815260200190815260200160002060006101000a81548160ff0219169083151502179055507f4d5d3c0b738fd8f4b26fa11966a64c4b072cb5837aadaf02808df71f883a5d5181608001518260000151600560003373ffffffffffffffffffffffffffffffffffffffff1673ffffffffffffffffffffffffffffffffffffffff1681526020019081526020016000206000013460405161135d9493929190612a54565b60405180910390a15050565b600160008082825461137b919061236e565b925050819055506000600560003373ffffffffffffffffffffffffffffffffffffffff1673ffffffffffffffffffffffffffffffffffffffff1681526020019081526020016000209050818160000190816113d69190612601565b5060005481600101819055506002600360003373ffffffffffffffffffffffffffffffffffffffff1673ffffffffffffffffffffffffffffffffffffffff16815260200190815260200160002060006101000a81548160ff0219169083600281111561144557611444612143565b5b02179055505050565b6060806060806000806000600660008981526020019081526020016000206040518060e001604052908160008201805461148790612424565b80601f01602080910402602001604051908101604052809291908181526020018280546114b390612424565b80156115005780601f106114d557610100808354040283529160200191611500565b820191906000526020600020905b8154815290600101906020018083116114e357829003601f168201915b5050505050815260200160018201805461151990612424565b80601f016020809104026020016040519081016040528092919081815260200182805461154590612424565b80156115925780601f1061156757610100808354040283529160200191611592565b820191906000526020600020905b81548152906001019060200180831161157557829003601f168201915b505050505081526020016002820180546115ab90612424565b80601f01602080910402602001604051908101604052809291908181526020018280546115d790612424565b80156116245780601f106115f957610100808354040283529160200191611624565b820191906000526020600020905b81548152906001019060200180831161160757829003601f168201915b505050505081526020016003820154815260200160048201548152602001600582015481526020016006820160009054906101000a900473ffffffffffffffffffffffffffffffffffffffff1673ffffffffffffffffffffffffffffffffffffffff1673ffffffffffffffffffffffffffffffffffffffff1681525050905080600001518160200151826040015183606001516040516020016116c79190612ac8565b6040516020818303038152906040528460a00151600760008e8152602001908152602001600020549650965096509650965096505091939550919395565b606060006060600460003373ffffffffffffffffffffffffffffffffffffffff1673ffffffffffffffffffffffffffffffffffffffff168152602001908152602001600020600001600460003373ffffffffffffffffffffffffffffffffffffffff1673ffffffffffffffffffffffffffffffffffffffff16815260200190815260200160002060010154600460003373ffffffffffffffffffffffffffffffffffffffff1673ffffffffffffffffffffffffffffffffffffffff1681526020019081526020016000206002018280546117de90612424565b80601f016020809104026020016040519081016040528092919081815260200182805461180a90612424565b80156118575780601f1061182c57610100808354040283529160200191611857565b820191906000526020600020905b81548152906001019060200180831161183a57829003601f168201915b50505050509250808054806020026020016040519081016040528092919081815260200182805480156118a957602002820191906000526020600020905b815481526020019060010190808311611895575b50505050509050925092509250909192565b6000600360003373ffffffffffffffffffffffffffffffffffffffff1673ffffffffffffffffffffffffffffffffffffffff16815260200190815260200160002060009054906101000a900460ff16905090565b60028081111561192257611921612143565b5b600360003373ffffffffffffffffffffffffffffffffffffffff1673ffffffffffffffffffffffffffffffffffffffff16815260200190815260200160002060009054906101000a900460ff16600281111561198157611980612143565b5b146119c1576040517f08c379a00000000000000000000000000000000000000000000000000000000081526004016119b890612804565b60405180910390fd5b343373ffffffffffffffffffffffffffffffffffffffff163111611a1a576040517f08c379a0000000000000000000000000000000000000000000000000000000008152600401611a11906129b0565b60405180910390fd5b600981604051611a2a91906123de565b908152602001604051809103902060009054906101000a900473ffffffffffffffffffffffffffffffffffffffff1673ffffffffffffffffffffffffffffffffffffffff166108fc349081150290604051600060405180830381858888f19350505050158015611a9e573d6000803e3d6000fd5b507f19fc7073cff31b76fe0bf3c801e7fe11652310c62d0c225a9995a5d30940c64881600560003373ffffffffffffffffffffffffffffffffffffffff1673ffffffffffffffffffffffffffffffffffffffff16815260200190815260200160002060000134604051611b1393929190612ae3565b60405180910390a150565b60405180606001604052806060815260200160008152602001606081525090565b828054828255906000526020600020908101928215611b7b579160200282015b82811115611b7a578251825591602001919060010190611b5f565b5b509050611b889190611be2565b5090565b6040518060e00160405280606081526020016060815260200160608152602001600080191681526020016000815260200160008152602001600073ffffffffffffffffffffffffffffffffffffffff1681525090565b5b80821115611bfb576000816000905550600101611be3565b5090565b6000819050919050565b611c1281611bff565b82525050565b6000602082019050611c2d6000830184611c09565b92915050565b6000604051905090565b600080fd5b600080fd5b611c5081611bff565b8114611c5b57600080fd5b50565b600081359050611c6d81611c47565b92915050565b60008060408385031215611c8a57611c89611c3d565b5b6000611c9885828601611c5e565b9250506020611ca985828601611c5e565b9150509250929050565b600080fd5b600080fd5b6000601f19601f8301169050919050565b7f4e487b7100000000000000000000000000000000000000000000000000000000600052604160045260246000fd5b611d0682611cbd565b810181811067ffffffffffffffff82111715611d2557611d24611cce565b5b80604052505050565b6000611d38611c33565b9050611d448282611cfd565b919050565b600067ffffffffffffffff821115611d6457611d63611cce565b5b611d6d82611cbd565b9050602081019050919050565b82818337600083830152505050565b6000611d9c611d9784611d49565b611d2e565b905082815260208101848484011115611db857611db7611cb8565b5b611dc3848285611d7a565b509392505050565b600082601f830112611de057611ddf611cb3565b5b8135611df0848260208601611d89565b91505092915050565b600060208284031215611e0f57611e0e611c3d565b5b600082013567ffffffffffffffff811115611e2d57611e2c611c42565b5b611e3984828501611dcb565b91505092915050565b600081519050919050565b600082825260208201905092915050565b60005b83811015611e7c578082015181840152602081019050611e61565b60008484015250505050565b6000611e9382611e42565b611e9d8185611e4d565b9350611ead818560208601611e5e565b611eb681611cbd565b840191505092915050565b600081519050919050565b600082825260208201905092915050565b6000819050602082019050919050565b611ef681611bff565b82525050565b6000611f088383611eed565b60208301905092915050565b6000602082019050919050565b6000611f2c82611ec1565b611f368185611ecc565b9350611f4183611edd565b8060005b83811015611f72578151611f598882611efc565b9750611f6483611f14565b925050600181019050611f45565b5085935050505092915050565b60006060820190508181036000830152611f998186611e88565b9050611fa86020830185611c09565b8181036040830152611fba8184611f21565b9050949350505050565b6000819050919050565b611fd781611fc4565b8114611fe257600080fd5b50565b600081359050611ff481611fce565b92915050565b6000806000806080858703121561201457612013611c3d565b5b600085013567ffffffffffffffff81111561203257612031611c42565b5b61203e87828801611dcb565b945050602085013567ffffffffffffffff81111561205f5761205e611c42565b5b61206b87828801611dcb565b935050604061207c87828801611fe5565b925050606061208d87828801611c5e565b91505092959194509250565b6000602082840312156120af576120ae611c3d565b5b60006120bd84828501611c5e565b91505092915050565b600060c08201905081810360008301526120e08189611e88565b905081810360208301526120f48188611e88565b905081810360408301526121088187611e88565b9050818103606083015261211c8186611e88565b905061212b6080830185611c09565b61213860a0830184611c09565b979650505050505050565b7f4e487b7100000000000000000000000000000000000000000000000000000000600052602160045260246000fd5b6003811061218357612182612143565b5b50565b600081905061219482612172565b919050565b60006121a482612186565b9050919050565b6121b481612199565b82525050565b60006020820190506121cf60008301846121ab565b92915050565b7f4e6f7420616e206172746973742e000000000000000000000000000000000000600082015250565b600061220b600e83611e4d565b9150612216826121d5565b602082019050919050565b6000602082019050818103600083015261223a816121fe565b9050919050565b7f596f7520617265206e6f7420746865206f776e6572206f66207468697320736f60008201527f6e672e0000000000000000000000000000000000000000000000000000000000602082015250565b600061229d602383611e4d565b91506122a882612241565b604082019050919050565b600060208201905081810360008301526122cc81612290565b9050919050565b7f5072696365206d7573742062652067726561746572207468616e207a65726f2e600082015250565b6000612309602083611e4d565b9150612314826122d3565b602082019050919050565b60006020820190508181036000830152612338816122fc565b9050919050565b7f4e487b7100000000000000000000000000000000000000000000000000000000600052601160045260246000fd5b600061237982611bff565b915061238483611bff565b925082820190508082111561239c5761239b61233f565b5b92915050565b600081905092915050565b60006123b882611e42565b6123c281856123a2565b93506123d2818560208601611e5e565b80840191505092915050565b60006123ea82846123ad565b915081905092915050565b7f4e487b7100000000000000000000000000000000000000000000000000000000600052602260045260246000fd5b6000600282049050600182168061243c57607f821691505b60208210810361244f5761244e6123f5565b5b50919050565b60008190508160005260206000209050919050565b60006020601f8301049050919050565b600082821b905092915050565b6000600883026124b77fffffffffffffffffffffffffffffffffffffffffffffffffffffffffffffffff8261247a565b6124c1868361247a565b95508019841693508086168417925050509392505050565b6000819050919050565b60006124fe6124f96124f484611bff565b6124d9565b611bff565b9050919050565b6000819050919050565b612518836124e3565b61252c61252482612505565b848454612487565b825550505050565b600090565b612541612534565b61254c81848461250f565b505050565b5b8181101561257057612565600082612539565b600181019050612552565b5050565b601f8211156125b55761258681612455565b61258f8461246a565b8101602085101561259e578190505b6125b26125aa8561246a565b830182612551565b50505b505050565b600082821c905092915050565b60006125d8600019846008026125ba565b1980831691505092915050565b60006125f183836125c7565b9150826002028217905092915050565b61260a82611e42565b67ffffffffffffffff81111561262357612622611cce565b5b61262d8254612424565b612638828285612574565b600060209050601f83116001811461266b5760008415612659578287015190505b61266385826125e5565b8655506126cb565b601f19841661267986612455565b60005b828110156126a15784890151825560018201915060208501945060208101905061267c565b868310156126be57848901516126ba601f8916826125c7565b8355505b6001600288020188555050505b505050505050565b7f4475706c6963617465206861736820686173206265656e20646574656374656460008201527f2e00000000000000000000000000000000000000000000000000000000000000602082015250565b600061272f602183611e4d565b915061273a826126d3565b604082019050919050565b6000602082019050818103600083015261275e81612722565b9050919050565b600060808201905061277a6000830187611c09565b818103602083015261278c8186611e88565b905081810360408301526127a08185611e88565b90506127af6060830184611c09565b95945050505050565b7f4e6f742061206c697374656e65722070726f66696c652e000000000000000000600082015250565b60006127ee601783611e4d565b91506127f9826127b8565b602082019050919050565b6000602082019050818103600083015261281d816127e1565b9050919050565b7f536f6e6720616c7265616479207075726368617365642e000000000000000000600082015250565b600061285a601783611e4d565b915061286582612824565b602082019050919050565b600060208201905081810360008301526128898161284d565b9050919050565b600061289b82611bff565b91506128a683611bff565b92508282026128b481611bff565b915082820484148315176128cb576128ca61233f565b5b5092915050565b7f416d6f756e7420706179656420646f6573206e6f74206d61746368207072696360008201527f65206f662074686520736f6e672e000000000000000000000000000000000000602082015250565b600061292e602e83611e4d565b9150612939826128d2565b604082019050919050565b6000602082019050818103600083015261295d81612921565b9050919050565b7f496e73756666696369656e742062616c616e636520746f2070726f636565642e600082015250565b600061299a602083611e4d565b91506129a582612964565b602082019050919050565b600060208201905081810360008301526129c98161298d565b9050919050565b600081546129dd81612424565b6129e78186611e4d565b94506001821660008114612a025760018114612a1857612a4b565b60ff198316865281151560200286019350612a4b565b612a2185612455565b60005b83811015612a4357815481890152600182019150602081019050612a24565b808801955050505b50505092915050565b6000608082019050612a696000830187611c09565b8181036020830152612a7b8186611e88565b90508181036040830152612a8f81856129d0565b9050612a9e6060830184611c09565b95945050505050565b6000819050919050565b612ac2612abd82611fc4565b612aa7565b82525050565b6000612ad48284612ab1565b60208201915081905092915050565b60006060820190508181036000830152612afd8186611e88565b90508181036020830152612b1181856129d0565b9050612b206040830184611c09565b94935050505056fea2646970667358221220e07496f0fe5700e2cbd68ee5c19d9123cb4c82a8eac6b4c5f026347c5341d62164736f6c63430008130033",
  "linkReferences": {},
  "deployedLinkReferences": {}
}