{
  "contractName": "Knack",
  "abi": [
    {
      "inputs": [],
      "stateMutability": "nonpayable",
      "type": "constructor"
    },
    {
      "anonymous": false,
      "inputs": [
        {
          "indexed": false,
          "internalType": "uint256",
          "name": "songID",
          "type": "uint256"
        },
        {
          "indexed": false,
          "internalType": "string",
          "name": "songName",
          "type": "string"
        },
        {
          "indexed": false,
          "internalType": "string",
          "name": "artistName",
          "type": "string"
        },
        {
          "indexed": false,
          "internalType": "uint256",
          "name": "price",
          "type": "uint256"
        }
      ],
      "name": "songAdded",
      "type": "event"
    },
    {
      "inputs": [],
      "name": "getNumSongs",
      "outputs": [
        {
          "internalType": "uint256",
          "name": "",
          "type": "uint256"
        }
      ],
      "stateMutability": "view",
      "type": "function",
      "constant": true
    },
    {
      "inputs": [],
      "name": "checkUser",
      "outputs": [
        {
          "internalType": "enum Knack.UserType",
          "name": "",
          "type": "uint8"
        }
      ],
      "stateMutability": "view",
      "type": "function",
      "constant": true
    },
    {
      "inputs": [
        {
          "internalType": "string",
          "name": "_name",
          "type": "string"
        }
      ],
      "name": "addNewListener",
      "outputs": [],
      "stateMutability": "nonpayable",
      "type": "function"
    },
    {
      "inputs": [
        {
          "internalType": "string",
          "name": "_name",
          "type": "string"
        }
      ],
      "name": "addNewArtist",
      "outputs": [],
      "stateMutability": "nonpayable",
      "type": "function"
    },
    {
      "inputs": [],
      "name": "getListenerDetails",
      "outputs": [
        {
          "internalType": "string",
          "name": "",
          "type": "string"
        },
        {
          "internalType": "uint256",
          "name": "",
          "type": "uint256"
        },
        {
          "internalType": "uint256[]",
          "name": "",
          "type": "uint256[]"
        }
      ],
      "stateMutability": "view",
      "type": "function",
      "constant": true
    },
    {
      "inputs": [],
      "name": "getArtistDetails",
      "outputs": [
        {
          "internalType": "string",
          "name": "",
          "type": "string"
        },
        {
          "internalType": "uint256",
          "name": "",
          "type": "uint256"
        },
        {
          "internalType": "uint256[]",
          "name": "",
          "type": "uint256[]"
        }
      ],
      "stateMutability": "view",
      "type": "function",
      "constant": true
    },
    {
      "inputs": [
        {
          "internalType": "string",
          "name": "_name",
          "type": "string"
        },
        {
          "internalType": "string",
          "name": "_genre",
          "type": "string"
        },
        {
          "internalType": "string",
          "name": "_hash",
          "type": "string"
        },
        {
          "internalType": "uint256",
          "name": "_price",
          "type": "uint256"
        }
      ],
      "name": "addSong",
      "outputs": [],
      "stateMutability": "nonpayable",
      "type": "function"
    },
    {
      "inputs": [
        {
          "internalType": "uint256",
          "name": "_songID",
          "type": "uint256"
        }
      ],
      "name": "getSongDetails",
      "outputs": [
        {
          "internalType": "string",
          "name": "",
          "type": "string"
        },
        {
          "internalType": "string",
          "name": "",
          "type": "string"
        },
        {
          "internalType": "string",
          "name": "",
          "type": "string"
        },
        {
          "internalType": "string",
          "name": "",
          "type": "string"
        },
        {
          "internalType": "uint256",
          "name": "",
          "type": "uint256"
        },
        {
          "internalType": "uint256",
          "name": "",
          "type": "uint256"
        }
      ],
      "stateMutability": "view",
      "type": "function",
      "constant": true
    }
  ],
  "bytecode": "0x608060405234801561001057600080fd5b506000600281905550600060018190555060008081905550611a60806100376000396000f3fe608060405234801561001057600080fd5b50600436106100885760003560e01c806377822fc21161005b57806377822fc2146101035780637f7a451014610138578063c156254714610158578063f29b41651461017657610088565b80630c58d5b11461008d57806342490c4b146100ab5780634effb50e146100c757806362efa5f0146100e7575b600080fd5b610095610192565b6040516100a29190610fe2565b60405180910390f35b6100c560048036038101906100c09190611157565b61019c565b005b6100cf61031b565b6040516100de939291906112dd565b60405180910390f35b61010160048036038101906100fc9190611157565b6104d1565b005b61011d6004803603810190610118919061134e565b6105b6565b60405161012f9695949392919061137b565b60405180910390f35b610140610887565b60405161014f939291906112dd565b60405180910390f35b610160610a3d565b60405161016d919061146f565b60405180910390f35b610190600480360381019061018b919061148a565b610a91565b005b6000600254905090565b60018060008282546101ae9190611574565b925050819055506101bd610eeb565b818160000181905250600154816020018181525050336009836040516101e391906115e4565b908152602001604051809103902060006101000a81548173ffffffffffffffffffffffffffffffffffffffff021916908373ffffffffffffffffffffffffffffffffffffffff16021790555080600460003373ffffffffffffffffffffffffffffffffffffffff1673ffffffffffffffffffffffffffffffffffffffff16815260200190815260200160002060008201518160000190816102849190611807565b506020820151816001015560408201518160020190805190602001906102ab929190610f0c565b509050506001600360003373ffffffffffffffffffffffffffffffffffffffff1673ffffffffffffffffffffffffffffffffffffffff16815260200190815260200160002060006101000a81548160ff02191690836002811115610312576103116113f8565b5b02179055505050565b606060006060600560003373ffffffffffffffffffffffffffffffffffffffff1673ffffffffffffffffffffffffffffffffffffffff168152602001908152602001600020600001600560003373ffffffffffffffffffffffffffffffffffffffff1673ffffffffffffffffffffffffffffffffffffffff16815260200190815260200160002060010154600560003373ffffffffffffffffffffffffffffffffffffffff1673ffffffffffffffffffffffffffffffffffffffff1681526020019081526020016000206002018280546103f49061162a565b80601f01602080910402602001604051908101604052809291908181526020018280546104209061162a565b801561046d5780601f106104425761010080835404028352916020019161046d565b820191906000526020600020905b81548152906001019060200180831161045057829003601f168201915b50505050509250808054806020026020016040519081016040528092919081815260200182805480156104bf57602002820191906000526020600020905b8154815260200190600101908083116104ab575b50505050509050925092509250909192565b60016000808282546104e39190611574565b925050819055506000600560003373ffffffffffffffffffffffffffffffffffffffff1673ffffffffffffffffffffffffffffffffffffffff16815260200190815260200160002090508181600001908161053e9190611807565b5060005481600101819055506002600360003373ffffffffffffffffffffffffffffffffffffffff1673ffffffffffffffffffffffffffffffffffffffff16815260200190815260200160002060006101000a81548160ff021916908360028111156105ad576105ac6113f8565b5b02179055505050565b6060806060806000806006600088815260200190815260200160002060000160066000898152602001908152602001600020600101600660008a8152602001908152602001600020600201600660008b8152602001908152602001600020600301600660008c815260200190815260200160002060050154600760008d81526020019081526020016000205485805461064e9061162a565b80601f016020809104026020016040519081016040528092919081815260200182805461067a9061162a565b80156106c75780601f1061069c576101008083540402835291602001916106c7565b820191906000526020600020905b8154815290600101906020018083116106aa57829003601f168201915b505050505095508480546106da9061162a565b80601f01602080910402602001604051908101604052809291908181526020018280546107069061162a565b80156107535780601f1061072857610100808354040283529160200191610753565b820191906000526020600020905b81548152906001019060200180831161073657829003601f168201915b505050505094508380546107669061162a565b80601f01602080910402602001604051908101604052809291908181526020018280546107929061162a565b80156107df5780601f106107b4576101008083540402835291602001916107df565b820191906000526020600020905b8154815290600101906020018083116107c257829003601f168201915b505050505093508280546107f29061162a565b80601f016020809104026020016040519081016040528092919081815260200182805461081e9061162a565b801561086b5780601f106108405761010080835404028352916020019161086b565b820191906000526020600020905b81548152906001019060200180831161084e57829003601f168201915b5050505050925095509550955095509550955091939550919395565b606060006060600460003373ffffffffffffffffffffffffffffffffffffffff1673ffffffffffffffffffffffffffffffffffffffff168152602001908152602001600020600001600460003373ffffffffffffffffffffffffffffffffffffffff1673ffffffffffffffffffffffffffffffffffffffff16815260200190815260200160002060010154600460003373ffffffffffffffffffffffffffffffffffffffff1673ffffffffffffffffffffffffffffffffffffffff1681526020019081526020016000206002018280546109609061162a565b80601f016020809104026020016040519081016040528092919081815260200182805461098c9061162a565b80156109d95780601f106109ae576101008083540402835291602001916109d9565b820191906000526020600020905b8154815290600101906020018083116109bc57829003601f168201915b5050505050925080805480602002602001604051908101604052809291908181526020018280548015610a2b57602002820191906000526020600020905b815481526020019060010190808311610a17575b50505050509050925092509250909192565b6000600360003373ffffffffffffffffffffffffffffffffffffffff1673ffffffffffffffffffffffffffffffffffffffff16815260200190815260200160002060009054906101000a900460ff16905090565b60016002811115610aa557610aa46113f8565b5b600360003373ffffffffffffffffffffffffffffffffffffffff1673ffffffffffffffffffffffffffffffffffffffff16815260200190815260200160002060009054906101000a900460ff166002811115610b0457610b036113f8565b5b14610b44576040517f08c379a0000000000000000000000000000000000000000000000000000000008152600401610b3b90611925565b60405180910390fd5b600882604051610b5491906115e4565b908152602001604051809103902060009054906101000a900460ff1615610bb0576040517f08c379a0000000000000000000000000000000000000000000000000000000008152600401610ba7906119b7565b60405180910390fd5b600160026000828254610bc39190611574565b92505081905550610bd2610f59565b600254816080018181525050848160000181905250600460003373ffffffffffffffffffffffffffffffffffffffff1673ffffffffffffffffffffffffffffffffffffffff1681526020019081526020016000206000018054610c349061162a565b80601f0160208091040260200160405190810160405280929190818152602001828054610c609061162a565b8015610cad5780601f10610c8257610100808354040283529160200191610cad565b820191906000526020600020905b815481529060010190602001808311610c9057829003601f168201915b50505050508160200181905250838160400181905250828160600181905250818160a0018181525050338160c0019073ffffffffffffffffffffffffffffffffffffffff16908173ffffffffffffffffffffffffffffffffffffffff1681525050600060076000600254815260200190815260200160002081905550806006600060025481526020019081526020016000206000820151816000019081610d549190611807565b506020820151816001019081610d6a9190611807565b506040820151816002019081610d809190611807565b506060820151816003019081610d969190611807565b506080820151816004015560a0820151816005015560c08201518160060160006101000a81548173ffffffffffffffffffffffffffffffffffffffff021916908373ffffffffffffffffffffffffffffffffffffffff160217905550905050600460003373ffffffffffffffffffffffffffffffffffffffff1673ffffffffffffffffffffffffffffffffffffffff16815260200190815260200160002060020160025490806001815401808255809150506001900390600052602060002001600090919091909150556001600884604051610e7291906115e4565b908152602001604051809103902060006101000a81548160ff0219169083151502179055507f8c6d5283b06a4f84805865678e0a51043ab4788bdd609db7c5cbe4c6fce5c97f8160800151826000015183602001518460a00151604051610edc94939291906119d7565b60405180910390a15050505050565b60405180606001604052806060815260200160008152602001606081525090565b828054828255906000526020600020908101928215610f48579160200282015b82811115610f47578251825591602001919060010190610f2c565b5b509050610f559190610fac565b5090565b6040518060e00160405280606081526020016060815260200160608152602001606081526020016000815260200160008152602001600073ffffffffffffffffffffffffffffffffffffffff1681525090565b5b80821115610fc5576000816000905550600101610fad565b5090565b6000819050919050565b610fdc81610fc9565b82525050565b6000602082019050610ff76000830184610fd3565b92915050565b6000604051905090565b600080fd5b600080fd5b600080fd5b600080fd5b6000601f19601f8301169050919050565b7f4e487b7100000000000000000000000000000000000000000000000000000000600052604160045260246000fd5b6110648261101b565b810181811067ffffffffffffffff821117156110835761108261102c565b5b80604052505050565b6000611096610ffd565b90506110a2828261105b565b919050565b600067ffffffffffffffff8211156110c2576110c161102c565b5b6110cb8261101b565b9050602081019050919050565b82818337600083830152505050565b60006110fa6110f5846110a7565b61108c565b90508281526020810184848401111561111657611115611016565b5b6111218482856110d8565b509392505050565b600082601f83011261113e5761113d611011565b5b813561114e8482602086016110e7565b91505092915050565b60006020828403121561116d5761116c611007565b5b600082013567ffffffffffffffff81111561118b5761118a61100c565b5b61119784828501611129565b91505092915050565b600081519050919050565b600082825260208201905092915050565b60005b838110156111da5780820151818401526020810190506111bf565b60008484015250505050565b60006111f1826111a0565b6111fb81856111ab565b935061120b8185602086016111bc565b6112148161101b565b840191505092915050565b600081519050919050565b600082825260208201905092915050565b6000819050602082019050919050565b61125481610fc9565b82525050565b6000611266838361124b565b60208301905092915050565b6000602082019050919050565b600061128a8261121f565b611294818561122a565b935061129f8361123b565b8060005b838110156112d05781516112b7888261125a565b97506112c283611272565b9250506001810190506112a3565b5085935050505092915050565b600060608201905081810360008301526112f781866111e6565b90506113066020830185610fd3565b8181036040830152611318818461127f565b9050949350505050565b61132b81610fc9565b811461133657600080fd5b50565b60008135905061134881611322565b92915050565b60006020828403121561136457611363611007565b5b600061137284828501611339565b91505092915050565b600060c082019050818103600083015261139581896111e6565b905081810360208301526113a981886111e6565b905081810360408301526113bd81876111e6565b905081810360608301526113d181866111e6565b90506113e06080830185610fd3565b6113ed60a0830184610fd3565b979650505050505050565b7f4e487b7100000000000000000000000000000000000000000000000000000000600052602160045260246000fd5b60038110611438576114376113f8565b5b50565b600081905061144982611427565b919050565b60006114598261143b565b9050919050565b6114698161144e565b82525050565b60006020820190506114846000830184611460565b92915050565b600080600080608085870312156114a4576114a3611007565b5b600085013567ffffffffffffffff8111156114c2576114c161100c565b5b6114ce87828801611129565b945050602085013567ffffffffffffffff8111156114ef576114ee61100c565b5b6114fb87828801611129565b935050604085013567ffffffffffffffff81111561151c5761151b61100c565b5b61152887828801611129565b925050606061153987828801611339565b91505092959194509250565b7f4e487b7100000000000000000000000000000000000000000000000000000000600052601160045260246000fd5b600061157f82610fc9565b915061158a83610fc9565b92508282019050808211156115a2576115a1611545565b5b92915050565b600081905092915050565b60006115be826111a0565b6115c881856115a8565b93506115d88185602086016111bc565b80840191505092915050565b60006115f082846115b3565b915081905092915050565b7f4e487b7100000000000000000000000000000000000000000000000000000000600052602260045260246000fd5b6000600282049050600182168061164257607f821691505b602082108103611655576116546115fb565b5b50919050565b60008190508160005260206000209050919050565b60006020601f8301049050919050565b600082821b905092915050565b6000600883026116bd7fffffffffffffffffffffffffffffffffffffffffffffffffffffffffffffffff82611680565b6116c78683611680565b95508019841693508086168417925050509392505050565b6000819050919050565b60006117046116ff6116fa84610fc9565b6116df565b610fc9565b9050919050565b6000819050919050565b61171e836116e9565b61173261172a8261170b565b84845461168d565b825550505050565b600090565b61174761173a565b611752818484611715565b505050565b5b818110156117765761176b60008261173f565b600181019050611758565b5050565b601f8211156117bb5761178c8161165b565b61179584611670565b810160208510156117a4578190505b6117b86117b085611670565b830182611757565b50505b505050565b600082821c905092915050565b60006117de600019846008026117c0565b1980831691505092915050565b60006117f783836117cd565b9150826002028217905092915050565b611810826111a0565b67ffffffffffffffff8111156118295761182861102c565b5b611833825461162a565b61183e82828561177a565b600060209050601f831160018114611871576000841561185f578287015190505b61186985826117eb565b8655506118d1565b601f19841661187f8661165b565b60005b828110156118a757848901518255600182019150602085019450602081019050611882565b868310156118c457848901516118c0601f8916826117cd565b8355505b6001600288020188555050505b505050505050565b7f4e6f7420616e206172746973742e000000000000000000000000000000000000600082015250565b600061190f600e836111ab565b915061191a826118d9565b602082019050919050565b6000602082019050818103600083015261193e81611902565b9050919050565b7f4475706c6963617465206861736820686173206265656e20646574656374656460008201527f2e00000000000000000000000000000000000000000000000000000000000000602082015250565b60006119a16021836111ab565b91506119ac82611945565b604082019050919050565b600060208201905081810360008301526119d081611994565b9050919050565b60006080820190506119ec6000830187610fd3565b81810360208301526119fe81866111e6565b90508181036040830152611a1281856111e6565b9050611a216060830184610fd3565b9594505050505056fea26469706673582212201b030a173c9af10e5a8ff810c8c9c0995d88c9df93664e6e19107b5158e90cf864736f6c63430008130033",
  "immutableReferences": {},
  "source": "// SPDX-License-Identifier: MIT\r\npragma solidity >=0.4.22 <0.9.0;\r\n\r\ncontract Knack {\r\n    uint256 listenerIDTracker;\r\n    uint256 artistIDTracker;\r\n    uint256 songIDTracker;\r\n\r\n    enum UserType {\r\n        UNDEFINED,\r\n        ARTIST,\r\n        LISTENER\r\n    }\r\n\r\n    struct Artist {\r\n        string name;\r\n        uint256 artistID;\r\n        uint256[] songsPublished;\r\n    }\r\n\r\n    struct Listener {\r\n        string name;\r\n        uint256 listenerID;\r\n        uint256[] songsPurchased;\r\n        mapping(uint256 => bool) isSongPurchased;\r\n    }\r\n\r\n    struct Song {\r\n        string songName;\r\n        string artistName;\r\n        string genre;\r\n        string hash;\r\n        uint256 songID;\r\n        uint256 price;\r\n        address payable artistAddress;\r\n    }\r\n\r\n    mapping(address => UserType) identifyUser;\r\n    mapping(address => Artist) allArtists;\r\n    mapping(address => Listener) allListeners;\r\n    mapping(uint256 => Song) allSongs;\r\n    mapping(uint256 => uint256) timesSongPurchased;\r\n    mapping(string => bool) songHashUsed;\r\n    mapping(string => address payable) getArtistAddress;\r\n\r\n    constructor() {\r\n        songIDTracker = 0;\r\n        artistIDTracker = 0;\r\n        listenerIDTracker = 0;\r\n    }\r\n\r\n    function getNumSongs() public view returns (uint256) {\r\n        return songIDTracker;\r\n    }\r\n\r\n    function checkUser() public view returns (UserType) {\r\n        return identifyUser[msg.sender];\r\n    }\r\n\r\n    function addNewListener(string memory _name) public {\r\n        listenerIDTracker += 1;\r\n        Listener storage newListener = allListeners[msg.sender];\r\n        newListener.name = _name;\r\n        newListener.listenerID = listenerIDTracker;\r\n        identifyUser[msg.sender] = UserType.LISTENER;\r\n    }\r\n\r\n    function addNewArtist(string memory _name) public {\r\n        artistIDTracker += 1;\r\n        Artist memory newArtist;\r\n        newArtist.name = _name;\r\n        newArtist.artistID = artistIDTracker;\r\n        getArtistAddress[_name] = payable(msg.sender);\r\n        allArtists[msg.sender] = newArtist;\r\n        identifyUser[msg.sender] = UserType.ARTIST;\r\n    }\r\n\r\n    function getListenerDetails()\r\n        public\r\n        view\r\n        returns (\r\n            string memory,\r\n            uint256,\r\n            uint256[] memory\r\n        )\r\n    {\r\n        return (\r\n            allListeners[msg.sender].name,\r\n            allListeners[msg.sender].listenerID,\r\n            allListeners[msg.sender].songsPurchased\r\n        );\r\n    }\r\n\r\n    function getArtistDetails()\r\n        public\r\n        view\r\n        returns (\r\n            string memory,\r\n            uint256,\r\n            uint256[] memory\r\n        )\r\n    {\r\n        return (\r\n            allArtists[msg.sender].name,\r\n            allArtists[msg.sender].artistID,\r\n            allArtists[msg.sender].songsPublished\r\n        );\r\n    }\r\n\r\n    event songAdded(uint256 songID, string songName, string artistName, uint256 price);\r\n\r\n    function addSong(\r\n        string memory _name,\r\n        string memory _genre,\r\n        string memory _hash,\r\n        uint256 _price\r\n    ) public {\r\n        require(identifyUser[msg.sender] == UserType.ARTIST, \"Not an artist.\");\r\n        require(!songHashUsed[_hash], \"Duplicate hash has been detected.\");\r\n\r\n        songIDTracker += 1;\r\n\r\n        Song memory newSong;\r\n        newSong.songID = songIDTracker;\r\n        newSong.songName = _name;\r\n        newSong.artistName = allArtists[msg.sender].name;\r\n        newSong.genre = _genre;\r\n        newSong.hash = _hash;\r\n        newSong.price = _price;\r\n        newSong.artistAddress = payable(msg.sender);\r\n\r\n        timesSongPurchased[songIDTracker] = 0;\r\n\r\n        allSongs[songIDTracker] = newSong;\r\n        allArtists[msg.sender].songsPublished.push(songIDTracker);\r\n        songHashUsed[_hash] = true;\r\n\r\n        emit songAdded(newSong.songID, newSong.songName, newSong.artistName, newSong.price);\r\n    }\r\n\r\n    function getSongDetails(uint256 _songID)\r\n        public\r\n        view\r\n        returns (\r\n            string memory,\r\n            string memory,\r\n            string memory,\r\n            string memory,\r\n            uint256,\r\n            uint256\r\n        )\r\n    {\r\n        return (\r\n            allSongs[_songID].songName,\r\n            allSongs[_songID].artistName,\r\n            allSongs[_songID].genre,\r\n            allSongs[_songID].hash,\r\n            allSongs[_songID].price,\r\n            timesSongPurchased[_songID]\r\n        );\r\n    }\r\n}\r\n",
  "sourcePath": "C:\\Users\\1\\Desktop\\figma\\knack-blockchain\\contracts\\Knack.sol",
  "compiler": {
    "name": "solc",
    "version": "0.8.19+commit.7dd6d404.Emscripten.clang"
  },
  "schemaVersion": "3.4.16",
  "updatedAt": "2025-03-12T17:25:42.378Z",
  "networkType": "ethereum",
  "devdoc": {
    "kind": "dev",
    "methods": {},
    "version": 1
  },
  "userdoc": {
    "kind": "user",
    "methods": {},
    "version": 1
  }
}